{
  "transactions": [
    {
      "hash": "0xad55c41777d9a957e0246bc3720e4e2a0f550859e706403497ab7c48334a2d56",
      "transactionType": "CREATE",
      "contractName": "ReferralStorageV2",
      "contractAddress": "0x921c855eca471f235ec590aa0882d029bf7571d6",
      "function": null,
      "arguments": null,
      "transaction": {
        "from": "0x1f5d64f7e07258b53dd2e5876ec70fb9f094c2d1",
        "gas": "0x150d03",
        "value": "0x0",
        "input": "0x608060405234801561001057600080fd5b50600080546001600160a01b031916331790556111d1806100326000396000f3fe608060405234801561001057600080fd5b50600436106101075760003560e01c8063039af9eb1461010c57806312d43a51146101425780631582a0181461016657806336def2c81461019e5780633fb8b323146101bd57806346ea87af146101e9578063534ef8831461022357806356b4b2ad1461026a5780636bb22fd7146102965780637bc6729b146102c2578063836a0187146102ca57806385725b58146102f35780638d0fedb0146103195780639c35b497146103585780639cb7de4b1461037e578063c8b3c460146103ac578063cfad57a2146103c9578063dfcfa250146103ef578063e1e01bf31461041b578063e1f1c4a714610438578063f858d07f14610440575b600080fd5b6101296004803603602081101561012257600080fd5b5035610466565b6040805192835260208301919091528051918290030190f35b61014a61047f565b604080516001600160a01b039092168252519081900360200190f35b61018c6004803603602081101561017c57600080fd5b50356001600160a01b031661048e565b60408051918252519081900360200190f35b6101bb600480360360208110156101b457600080fd5b50356104a0565b005b6101bb600480360360408110156101d357600080fd5b506001600160a01b0381351690602001356105b2565b61020f600480360360208110156101ff57600080fd5b50356001600160a01b0316610658565b604080519115158252519081900360200190f35b6102496004803603602081101561023957600080fd5b50356001600160a01b031661066d565b604080519283526001600160a01b0390911660208301528051918290030190f35b6101bb6004803603604081101561028057600080fd5b506001600160a01b0381351690602001356106b3565b6101bb600480360360408110156102ac57600080fd5b506001600160a01b03813516906020013561076a565b6101bb61087b565b6101bb600480360360608110156102e057600080fd5b508035906020810135906040013561098f565b61018c6004803603602081101561030957600080fd5b50356001600160a01b0316610ae4565b61033f6004803603602081101561032f57600080fd5b50356001600160a01b0316610af6565b6040805192835290151560208301528051918290030190f35b6101bb6004803603602081101561036e57600080fd5b50356001600160a01b0316610b12565b6101bb6004803603604081101561039457600080fd5b506001600160a01b0381351690602001351515610c23565b61014a600480360360208110156103c257600080fd5b5035610cd4565b6101bb600480360360208110156103df57600080fd5b50356001600160a01b0316610cef565b6101bb6004803603604081101561040557600080fd5b50803590602001356001600160a01b0316610e05565b6101bb6004803603602081101561043157600080fd5b5035610fdb565b61018c610fe5565b61018c6004803603602081101561045657600080fd5b50356001600160a01b0316610feb565b6002602052600090815260409020805460019091015482565b6000546001600160a01b031681565b60036020526000908152604090205481565b806104f2576040805162461bcd60e51b815260206004820152601e60248201527f526566657272616c53746f726167653a20696e76616c6964205f636f64650000604482015290519081900360640190fd5b6000818152600560205260409020546001600160a01b0316156105465760405162461bcd60e51b81526004018080602001828103825260248152602001806111526024913960400191505060405180910390fd5b600081815260056020908152604080832080546001600160a01b031916339081179091558084526006835292819020849055805192835290820183905280517f04f82286a2a3b2ee5c8555de8304dfe2ea70991613213184b73a9e408d2d80299281900390910190a150565b6000546001600160a01b031633146105ff576040805162461bcd60e51b815260206004820152601560248201526000805160206110ec833981519152604482015290519081900360640190fd5b6001600160a01b0382166000818152600360209081526040918290208490558151928352820183905280517f7696855cdbb94bb5a44cb0a95caff6f29173aa1cbfba193834b12b90827ce2bc9281900390910190a15050565b60046020526000908152604090205460ff1681565b6001600160a01b03811660009081526007602052604081205481908181156106a957506000818152600560205260409020546001600160a01b03165b9092509050915091565b3360009081526004602052604090205460ff16610714576040805162461bcd60e51b815260206004820152601a6024820152792932b332b93930b629ba37b930b3b29d103337b93134b23232b760311b604482015290519081900360640190fd5b6000818152600560205260409020546001600160a01b038381169116141561073b57610766565b6000818152600560205260409020546001600160a01b031661075c57610766565b6107668282610ffd565b5050565b6000546001600160a01b031633146107b7576040805162461bcd60e51b815260206004820152601560248201526000805160206110ec833981519152604482015290519081900360640190fd5b6001600160a01b038216610810576040805162461bcd60e51b815260206004820152601b60248201527a476f7665726e61626c653a20696e76616c6964206164647265737360281b604482015290519081900360640190fd5b6000546001600160a01b0383811691161415610871576040805162461bcd60e51b815260206004820152601b60248201527a476f7665726e61626c653a2073616d6520676f7665726e616e636560281b604482015290519081900360640190fd5b6107668282611056565b336000908152600160205260409020805442106108de576040805162461bcd60e51b815260206004820152601c60248201527b11dbdd995c9b98589b194e88191958591b1a5b9948195e1c1a5c995960221b604482015290519081900360640190fd5b60018082015460ff161515146109255760405162461bcd60e51b81526004018080602001828103825260228152602001806111306022913960400191505060405180910390fd5b6000805433808352600160208190526040808520858155909101805460ff1916905583546001600160a01b03191682178455516001600160a01b0390921692909183917f5f56bee8cffbe9a78652a74a60705edede02af10b0bbb888ca44b79a0d42ce8091a35050565b6000546001600160a01b031633146109dc576040805162461bcd60e51b815260206004820152601560248201526000805160206110ec833981519152604482015290519081900360640190fd5b612710821115610a1d5760405162461bcd60e51b815260040180806020018281038252602481526020018061110c6024913960400191505060405180910390fd5b612710811115610a5e5760405162461bcd60e51b81526004018080602001828103825260268152602001806111766026913960400191505060405180910390fd5b610a666110d1565b50600083815260026020818152604080842081518083018352878152808401878152958990529383528351815593516001909401939093558251868152908101859052808301849052915190917f4ebd23a492b2bd79586cb57cae40d7793408265f20320f68b478b971e696f4c7919081900360600190a150505050565b60076020526000908152604090205481565b6001602081905260009182526040909120805491015460ff1682565b6000546001600160a01b03163314610b5f576040805162461bcd60e51b815260206004820152601560248201526000805160206110ec833981519152604482015290519081900360640190fd5b6001600160a01b0381166000908152600160208190526040909120015460ff16610bd0576040805162461bcd60e51b815260206004820152601f60248201527f476f7665726e61626c653a2070726f706f73616c206e6f742061637469766500604482015290519081900360640190fd5b6001600160a01b0381166000818152600160208190526040808320838155909101805460ff19169055513392917ffc6a2fa53abe2adfe8372a9495032d7e6458d3aed34fa880132b6c808da1e99c91a350565b6000546001600160a01b03163314610c70576040805162461bcd60e51b815260206004820152601560248201526000805160206110ec833981519152604482015290519081900360640190fd5b6001600160a01b038216600081815260046020908152604091829020805460ff191685151590811790915582519384529083015280517fd373464a39404e5f98fdb4b152b8ba9a094561e97e5c4b4ea11eb18cd9e6695e9281900390910190a15050565b6005602052600090815260409020546001600160a01b031681565b6000546001600160a01b03163314610d3c576040805162461bcd60e51b815260206004820152601560248201526000805160206110ec833981519152604482015290519081900360640190fd5b6001600160a01b038116610d95576040805162461bcd60e51b815260206004820152601b60248201527a476f7665726e61626c653a20696e76616c6964206164647265737360281b604482015290519081900360640190fd5b6000546001600160a01b0382811691161415610df6576040805162461bcd60e51b815260206004820152601b60248201527a476f7665726e61626c653a2073616d6520676f7665726e616e636560281b604482015290519081900360640190fd5b610e0281600019611056565b50565b6000546001600160a01b03163314610e52576040805162461bcd60e51b815260206004820152601560248201526000805160206110ec833981519152604482015290519081900360640190fd5b81610ea4576040805162461bcd60e51b815260206004820152601e60248201527f526566657272616c53746f726167653a20696e76616c6964205f636f64650000604482015290519081900360640190fd5b6001600160a01b03811660009081526006602052604090205415610f0f576040805162461bcd60e51b815260206004820152601f60248201527f526566657272616c53746f726167653a20616c72656164792065786973747300604482015290519081900360640190fd5b6000828152600560205260409020546001600160a01b031615610f635760405162461bcd60e51b81526004018080602001828103825260248152602001806111526024913960400191505060405180910390fd5b600082815260056020908152604080832080546001600160a01b0319166001600160a01b038616908117909155808452600683529281902085905580518581529182019290925281517f6431f88c655dd0e2b8d09b6405c007c515c66d67f2998e69c902873a8c8f3e97929181900390910190a15050565b610e023382610ffd565b61271081565b60066020526000908152604090205481565b6001600160a01b0382166000818152600760209081526040918290208490558151928352820183905280517f43825f14567dda057e821be2e51a5aa79aa51f3907a647e3ed2bd486a01050f19281900390910190a15050565b604080518082018252828152600160208083018281526001600160a01b038716600081815284845286902094518555905193909201805460ff1916931515939093179092558251848152925190927f02dd0697be46e764c3ba81094158781c31b235d03bb27a0daf1bdef0ec1084dd92908290030190a25050565b60405180604001604052806000815260200160008152509056fe476f7665726e61626c653a20666f7262696464656e0000000000000000000000526566657272616c53746f726167653a20696e76616c696420746f74616c526562617465476f7665726e61626c653a2070726f706f73616c206973206e6f7420616374697665526566657272616c53746f726167653a20636f646520616c726561647920657869737473526566657272616c53746f726167653a20696e76616c696420646973636f756e745368617265a2646970667358221220e28b31dc7b1eb93bd94e4924cfcfbaf31cdc7f195f99d40c8622f1bb41bf7c3564736f6c634300060c0033",
        "nonce": "0x203",
        "chainId": "0x14a34"
      },
      "additionalContracts": [],
      "isFixedGasLimit": false
    },
    {
      "hash": "0x7cd9bc2f489b7a2ba95f3054f286fffac8456b8a8986844e46f76250fbf02b30",
      "transactionType": "CALL",
      "contractName": "ReferralStorageV2",
      "contractAddress": "0x921c855eca471f235ec590aa0882d029bf7571d6",
      "function": "setHandler(address,bool)",
      "arguments": [
        "0x857e1Cd7EB1E527153ceB6476494679C3B61037D",
        "true"
      ],
      "transaction": {
        "from": "0x1f5d64f7e07258b53dd2e5876ec70fb9f094c2d1",
        "to": "0x921c855eca471f235ec590aa0882d029bf7571d6",
        "gas": "0x101e1",
        "value": "0x0",
        "input": "0x9cb7de4b000000000000000000000000857e1cd7eb1e527153ceb6476494679c3b61037d0000000000000000000000000000000000000000000000000000000000000001",
        "nonce": "0x204",
        "chainId": "0x14a34"
      },
      "additionalContracts": [],
      "isFixedGasLimit": false
    },
    {
      "hash": "0x52cb0d9fdfcf84b0f369238561518e0a8cb36dd775edcc0699c66f396db6d536",
      "transactionType": "CALL",
      "contractName": "ReferralStorageV2",
      "contractAddress": "0x921c855eca471f235ec590aa0882d029bf7571d6",
      "function": "setHandler(address,bool)",
      "arguments": [
        "0x7a93a88E2Fb48801963f3e3581b14FAa50F99Cc6",
        "true"
      ],
      "transaction": {
        "from": "0x1f5d64f7e07258b53dd2e5876ec70fb9f094c2d1",
        "to": "0x921c855eca471f235ec590aa0882d029bf7571d6",
        "gas": "0x101e1",
        "value": "0x0",
        "input": "0x9cb7de4b0000000000000000000000007a93a88e2fb48801963f3e3581b14faa50f99cc60000000000000000000000000000000000000000000000000000000000000001",
        "nonce": "0x205",
        "chainId": "0x14a34"
      },
      "additionalContracts": [],
      "isFixedGasLimit": false
    },
    {
      "hash": "0x758862a5362acbf3b042e6988712c587397ec7bed5218da3ab2add4a7a9483b4",
      "transactionType": "CALL",
      "contractName": "ReferralStorageV2",
      "contractAddress": "0x921c855eca471f235ec590aa0882d029bf7571d6",
      "function": "setTier(uint256,uint256,uint256)",
      "arguments": [
        "0",
        "0",
        "1000"
      ],
      "transaction": {
        "from": "0x1f5d64f7e07258b53dd2e5876ec70fb9f094c2d1",
        "to": "0x921c855eca471f235ec590aa0882d029bf7571d6",
        "gas": "0x10f48",
        "value": "0x0",
        "input": "0x836a01870000000000000000000000000000000000000000000000000000000000000000000000000000000000000000000000000000000000000000000000000000000000000000000000000000000000000000000000000000000000000000000003e8",
        "nonce": "0x206",
        "chainId": "0x14a34"
      },
      "additionalContracts": [],
      "isFixedGasLimit": false
    },
    {
      "hash": "0xccfcde3ec4a89c0326d3fd25b8ba7c1359f685a1e15e6da3027d7cabea34b782",
      "transactionType": "CALL",
      "contractName": null,
      "contractAddress": "0x857e1cd7eb1e527153ceb6476494679c3b61037d",
      "function": "setReferralStorage(address)",
      "arguments": [
        "0x921c855EcA471f235EC590AA0882D029BF7571D6"
      ],
      "transaction": {
        "from": "0x1f5d64f7e07258b53dd2e5876ec70fb9f094c2d1",
        "to": "0x857e1cd7eb1e527153ceb6476494679c3b61037d",
        "gas": "0xac94",
        "value": "0x0",
        "input": "0xae4d7f9a000000000000000000000000921c855eca471f235ec590aa0882d029bf7571d6",
        "nonce": "0x207",
        "chainId": "0x14a34"
      },
      "additionalContracts": [],
      "isFixedGasLimit": false
    },
    {
      "hash": "0x7a023eb510802642f3c1aeb33fff2968e9a4dcacb88e2bcee0755395ab75e68f",
      "transactionType": "CALL",
      "contractName": null,
      "contractAddress": "0x7a93a88e2fb48801963f3e3581b14faa50f99cc6",
      "function": "setReferralStorage(address)",
      "arguments": [
        "0x921c855EcA471f235EC590AA0882D029BF7571D6"
      ],
      "transaction": {
        "from": "0x1f5d64f7e07258b53dd2e5876ec70fb9f094c2d1",
        "to": "0x7a93a88e2fb48801963f3e3581b14faa50f99cc6",
        "gas": "0xfec7",
        "value": "0x0",
        "input": "0xae4d7f9a000000000000000000000000921c855eca471f235ec590aa0882d029bf7571d6",
        "nonce": "0x208",
        "chainId": "0x14a34"
      },
      "additionalContracts": [],
      "isFixedGasLimit": false
    }
  ],
  "receipts": [
    {
      "status": "0x1",
      "cumulativeGasUsed": "0x5887e2",
      "logs": [],
      "logsBloom": "0x00000000000000000000000000000000000000000000000000000000000000000000000000000000000000000000000000000000000000000000000000000000000000000000000000000000000000000000000000000000000000000000000000000000000000000000000000000000000000000000000000000000000000000000000000000000000000000000000000000000000000000000000000000000000000000000000000000000000000000000000000000000000000000000000000000000000000000000000000000000000000000000000000000000000000000000000000000000000000000000000000000000000000000000000000000000",
      "type": "0x2",
      "transactionHash": "0xad55c41777d9a957e0246bc3720e4e2a0f550859e706403497ab7c48334a2d56",
      "transactionIndex": "0xc",
      "blockHash": "0xa2ff86ff5639d754855f2eb9ebedc386109737ff95f19cca9f475381066e3656",
      "blockNumber": "0x1e0f34b",
      "gasUsed": "0x103165",
      "effectiveGasPrice": "0xf42fd",
      "from": "0x1f5d64f7e07258b53dd2e5876ec70fb9f094c2d1",
      "to": null,
      "contractAddress": "0x921c855eca471f235ec590aa0882d029bf7571d6",
      "l1BaseFeeScalar": "0x44d",
      "l1BlobBaseFee": "0x1",
      "l1BlobBaseFeeScalar": "0xa118b",
      "l1Fee": "0x8b7",
      "l1GasPrice": "0x16",
      "l1GasUsed": "0x852a"
    },
    {
      "status": "0x1",
      "cumulativeGasUsed": "0x594296",
      "logs": [
        {
          "address": "0x921c855eca471f235ec590aa0882d029bf7571d6",
          "topics": [
            "0xd373464a39404e5f98fdb4b152b8ba9a094561e97e5c4b4ea11eb18cd9e6695e"
          ],
          "data": "0x000000000000000000000000857e1cd7eb1e527153ceb6476494679c3b61037d0000000000000000000000000000000000000000000000000000000000000001",
          "blockHash": "0xa2ff86ff5639d754855f2eb9ebedc386109737ff95f19cca9f475381066e3656",
          "blockNumber": "0x1e0f34b",
          "blockTimestamp": "0x68d54576",
          "transactionHash": "0x7cd9bc2f489b7a2ba95f3054f286fffac8456b8a8986844e46f76250fbf02b30",
          "transactionIndex": "0xd",
          "logIndex": "0x98",
          "removed": false
        }
      ],
      "logsBloom": "0x00000000000000000000000000000000000000000000000000000000000080000000000000000000000000100000000000000000000000000000000000000000000000000000000000000000000000000000000000000000000000000000000000000000000000000000000000000000000000000000000000000000000000000000000000000000000000000000000000000000000000000000000000001000000000000200000000000000000000000000000000000000000000000000000000000000000000000000000000000000000000000000000000000000000000000000000000000000000000000000000000001800000000000000000000000000",
      "type": "0x2",
      "transactionHash": "0x7cd9bc2f489b7a2ba95f3054f286fffac8456b8a8986844e46f76250fbf02b30",
      "transactionIndex": "0xd",
      "blockHash": "0xa2ff86ff5639d754855f2eb9ebedc386109737ff95f19cca9f475381066e3656",
      "blockNumber": "0x1e0f34b",
      "gasUsed": "0xbab4",
      "effectiveGasPrice": "0xf42fd",
      "from": "0x1f5d64f7e07258b53dd2e5876ec70fb9f094c2d1",
      "to": "0x921c855eca471f235ec590aa0882d029bf7571d6",
      "contractAddress": null,
      "l1BaseFeeScalar": "0x44d",
      "l1BlobBaseFee": "0x1",
      "l1BlobBaseFeeScalar": "0xa118b",
      "l1Fee": "0x68",
      "l1GasPrice": "0x16",
      "l1GasUsed": "0x640"
    },
    {
      "status": "0x1",
      "cumulativeGasUsed": "0x59fd4a",
      "logs": [
        {
          "address": "0x921c855eca471f235ec590aa0882d029bf7571d6",
          "topics": [
            "0xd373464a39404e5f98fdb4b152b8ba9a094561e97e5c4b4ea11eb18cd9e6695e"
          ],
          "data": "0x0000000000000000000000007a93a88e2fb48801963f3e3581b14faa50f99cc60000000000000000000000000000000000000000000000000000000000000001",
          "blockHash": "0xa2ff86ff5639d754855f2eb9ebedc386109737ff95f19cca9f475381066e3656",
          "blockNumber": "0x1e0f34b",
          "blockTimestamp": "0x68d54576",
          "transactionHash": "0x52cb0d9fdfcf84b0f369238561518e0a8cb36dd775edcc0699c66f396db6d536",
          "transactionIndex": "0xe",
          "logIndex": "0x99",
          "removed": false
        }
      ],
      "logsBloom": "0x00000000000000000000000000000000000000000000000000000000000080000000000000000000000000100000000000000000000000000000000000000000000000000000000000000000000000000000000000000000000000000000000000000000000000000000000000000000000000000000000000000000000000000000000000000000000000000000000000000000000000000000000000001000000000000200000000000000000000000000000000000000000000000000000000000000000000000000000000000000000000000000000000000000000000000000000000000000000000000000000000001800000000000000000000000000",
      "type": "0x2",
      "transactionHash": "0x52cb0d9fdfcf84b0f369238561518e0a8cb36dd775edcc0699c66f396db6d536",
      "transactionIndex": "0xe",
      "blockHash": "0xa2ff86ff5639d754855f2eb9ebedc386109737ff95f19cca9f475381066e3656",
      "blockNumber": "0x1e0f34b",
      "gasUsed": "0xbab4",
      "effectiveGasPrice": "0xf42fd",
      "from": "0x1f5d64f7e07258b53dd2e5876ec70fb9f094c2d1",
      "to": "0x921c855eca471f235ec590aa0882d029bf7571d6",
      "contractAddress": null,
      "l1BaseFeeScalar": "0x44d",
      "l1BlobBaseFee": "0x1",
      "l1BlobBaseFeeScalar": "0xa118b",
      "l1Fee": "0x68",
      "l1GasPrice": "0x16",
      "l1GasUsed": "0x640"
    },
    {
      "status": "0x1",
      "cumulativeGasUsed": "0x5ac1b2",
      "logs": [
        {
          "address": "0x921c855eca471f235ec590aa0882d029bf7571d6",
          "topics": [
            "0x4ebd23a492b2bd79586cb57cae40d7793408265f20320f68b478b971e696f4c7"
          ],
          "data": "0x0000000000000000000000000000000000000000000000000000000000000000000000000000000000000000000000000000000000000000000000000000000000000000000000000000000000000000000000000000000000000000000003e8",
          "blockHash": "0xa2ff86ff5639d754855f2eb9ebedc386109737ff95f19cca9f475381066e3656",
          "blockNumber": "0x1e0f34b",
          "blockTimestamp": "0x68d54576",
          "transactionHash": "0x758862a5362acbf3b042e6988712c587397ec7bed5218da3ab2add4a7a9483b4",
          "transactionIndex": "0xf",
          "logIndex": "0x9a",
          "removed": false
        }
      ],
      "logsBloom": "0x00000000000000000000000000000000008000000000000000000000000000000000000000020000000000000000000000000000000000000000000000000000000000000000000000000000000000000000000000000000000000000000000000000000000000000000000000000000000000000000000000000000000000000000000000000000000000000000000000000000000008000000000000001000000000000200000000000000000000000000000000000000000000000000000000000000000000000000000000000000000000000000000000000000000000000000000000000000000000000000000000001000000000000000000000000000",
      "type": "0x2",
      "transactionHash": "0x758862a5362acbf3b042e6988712c587397ec7bed5218da3ab2add4a7a9483b4",
      "transactionIndex": "0xf",
      "blockHash": "0xa2ff86ff5639d754855f2eb9ebedc386109737ff95f19cca9f475381066e3656",
      "blockNumber": "0x1e0f34b",
      "gasUsed": "0xc468",
      "effectiveGasPrice": "0xf42fd",
      "from": "0x1f5d64f7e07258b53dd2e5876ec70fb9f094c2d1",
      "to": "0x921c855eca471f235ec590aa0882d029bf7571d6",
      "contractAddress": null,
      "l1BaseFeeScalar": "0x44d",
      "l1BlobBaseFee": "0x1",
      "l1BlobBaseFeeScalar": "0xa118b",
      "l1Fee": "0x68",
      "l1GasPrice": "0x16",
      "l1GasUsed": "0x640"
    },
    {
      "status": "0x1",
      "cumulativeGasUsed": "0x5b37b3",
      "logs": [
        {
          "address": "0x857e1cd7eb1e527153ceb6476494679c3b61037d",
          "topics": [
            "0x828abcccea18192c21d645e575652c49e20b986dab777906fc473d056b01b6a8"
          ],
          "data": "0x000000000000000000000000921c855eca471f235ec590aa0882d029bf7571d6",
          "blockHash": "0xa2ff86ff5639d754855f2eb9ebedc386109737ff95f19cca9f475381066e3656",
          "blockNumber": "0x1e0f34b",
          "blockTimestamp": "0x68d54576",
          "transactionHash": "0xccfcde3ec4a89c0326d3fd25b8ba7c1359f685a1e15e6da3027d7cabea34b782",
          "transactionIndex": "0x10",
          "logIndex": "0x9b",
          "removed": false
        }
      ],
      "logsBloom": "0x00000000000000000000000000000000000000000000000000000000000000000000000000000000000000000000000000000000000000000000000000000000000000000000000000000000000001000000000000000000000000000000000000000000000000000000000000000000000000000000000000400000000000000000000000000000000000000000000000000000000000000000000020000000000000000000000000000000000000200000000000000000000000000000000000000000000000400000000000400000000000000000000000000000000000000000000000000000000000000000000000000000000000000000000000000000",
      "type": "0x2",
      "transactionHash": "0xccfcde3ec4a89c0326d3fd25b8ba7c1359f685a1e15e6da3027d7cabea34b782",
      "transactionIndex": "0x10",
      "blockHash": "0xa2ff86ff5639d754855f2eb9ebedc386109737ff95f19cca9f475381066e3656",
      "blockNumber": "0x1e0f34b",
      "gasUsed": "0x7601",
      "effectiveGasPrice": "0xf42fd",
      "from": "0x1f5d64f7e07258b53dd2e5876ec70fb9f094c2d1",
      "to": "0x857e1cd7eb1e527153ceb6476494679c3b61037d",
      "contractAddress": null,
      "l1BaseFeeScalar": "0x44d",
      "l1BlobBaseFee": "0x1",
      "l1BlobBaseFeeScalar": "0xa118b",
      "l1Fee": "0x68",
      "l1GasPrice": "0x16",
      "l1GasUsed": "0x640"
    },
    {
      "status": "0x1",
      "cumulativeGasUsed": "0x5bf028",
      "logs": [
        {
          "address": "0x7a93a88e2fb48801963f3e3581b14faa50f99cc6",
          "topics": [
            "0x828abcccea18192c21d645e575652c49e20b986dab777906fc473d056b01b6a8"
          ],
          "data": "0x000000000000000000000000921c855eca471f235ec590aa0882d029bf7571d6",
          "blockHash": "0x861b4e7fe251dc5dd857fcb359abdc7d92cdfc8b57b163a034ac0144515cf715",
          "blockNumber": "0x1e0f34b",
          "blockTimestamp": "0x68d54576",
          "transactionHash": "0x7a023eb510802642f3c1aeb33fff2968e9a4dcacb88e2bcee0755395ab75e68f",
          "transactionIndex": "0x11",
          "logIndex": "0x9c",
          "removed": false
        }
      ],
      "logsBloom": "0x00000000000000000000000000000000000000000000000000000000000000000000000000000000000000000000000000000000000000000000000000000000000000000000000000000000000001000000000000000000000000000000000000000000000000000000000000000000000000000000000000000000000000000000000000000000000000000000000000000000000000000000000020000080000000000000000000000000000000200020000000000000000000000000000000000000000000400000000000000000000000000000000000000000000000000000000000000000000000000000000000000000000000000000000000000000",
      "type": "0x2",
      "transactionHash": "0x7a023eb510802642f3c1aeb33fff2968e9a4dcacb88e2bcee0755395ab75e68f",
      "transactionIndex": "0x11",
      "blockHash": "0x861b4e7fe251dc5dd857fcb359abdc7d92cdfc8b57b163a034ac0144515cf715",
      "blockNumber": "0x1e0f34b",
      "gasUsed": "0xb875",
      "effectiveGasPrice": "0xf42fd",
      "from": "0x1f5d64f7e07258b53dd2e5876ec70fb9f094c2d1",
      "to": "0x7a93a88e2fb48801963f3e3581b14faa50f99cc6",
      "contractAddress": null,
      "l1BaseFeeScalar": "0x44d",
      "l1BlobBaseFee": "0x1",
      "l1BlobBaseFeeScalar": "0xa118b",
      "l1Fee": "0x68",
      "l1GasPrice": "0x16",
      "l1GasUsed": "0x640"
    }
  ],
  "libraries": [],
  "pending": [],
  "returns": {},
  "timestamp": 1758807403753,
  "chain": 84532,
  "commit": "3816739"
}